{
	"contracts/ERC20StakingPool.sol": {
		"LPTokenWrapper": {
			"abi": [
				{
					"inputs": [
						{
							"internalType": "address",
							"name": "account",
							"type": "address"
						}
					],
					"name": "balanceOf",
					"outputs": [
						{
							"internalType": "uint256",
							"name": "",
							"type": "uint256"
						}
					],
					"stateMutability": "view",
					"type": "function"
				},
				{
					"inputs": [],
					"name": "lpt",
					"outputs": [
						{
							"internalType": "contract IERC20",
							"name": "",
							"type": "address"
						}
					],
					"stateMutability": "view",
					"type": "function"
				},
				{
					"inputs": [
						{
							"internalType": "uint256",
							"name": "amount",
							"type": "uint256"
						}
					],
					"name": "stake",
					"outputs": [],
					"stateMutability": "nonpayable",
					"type": "function"
				},
				{
					"inputs": [],
					"name": "totalSupply",
					"outputs": [
						{
							"internalType": "uint256",
							"name": "",
							"type": "uint256"
						}
					],
					"stateMutability": "view",
					"type": "function"
				},
				{
					"inputs": [
						{
							"internalType": "uint256",
							"name": "amount",
							"type": "uint256"
						}
					],
					"name": "withdraw",
					"outputs": [],
					"stateMutability": "nonpayable",
					"type": "function"
				}
			],
			"devdoc": {
				"kind": "dev",
				"methods": {
					"balanceOf(address)": {
						"details": "返回账户余额",
						"params": {
							"account": "账户地址"
						},
						"returns": {
							"_0": "余额"
						}
					},
					"stake(uint256)": {
						"details": "把shushi抵押到Boardroom",
						"params": {
							"amount": "质押数量"
						}
					},
					"totalSupply()": {
						"details": "返回总量",
						"returns": {
							"_0": "总量"
						}
					},
					"withdraw(uint256)": {
						"details": "赎回LPToken",
						"params": {
							"amount": "赎回数量"
						}
					}
				},
				"stateVariables": {
					"_balances": {
						"details": "余额映射"
					},
					"_totalSupply": {
						"details": "质押总量"
					}
				},
				"title": "LP质押合约",
				"version": 1
			},
			"evm": {
				"assembly": "    /* \"contracts/ERC20StakingPool.sol\":19287:21059  contract LPTokenWrapper {\r... */\n  mstore(0x40, 0x80)\n  callvalue\n  dup1\n  iszero\n  tag_1\n  jumpi\n  0x00\n  dup1\n  revert\ntag_1:\n  pop\n  dataSize(sub_0)\n  dup1\n  dataOffset(sub_0)\n  0x00\n  codecopy\n  0x00\n  return\nstop\n\nsub_0: assembly {\n        /* \"contracts/ERC20StakingPool.sol\":19287:21059  contract LPTokenWrapper {\r... */\n      mstore(0x40, 0x80)\n      callvalue\n      dup1\n      iszero\n      tag_1\n      jumpi\n      0x00\n      dup1\n      revert\n    tag_1:\n      pop\n      jumpi(tag_2, lt(calldatasize, 0x04))\n      shr(0xe0, calldataload(0x00))\n      dup1\n      0x18160ddd\n      eq\n      tag_3\n      jumpi\n      dup1\n      0x2e1a7d4d\n      eq\n      tag_4\n      jumpi\n      dup1\n      0x70a08231\n      eq\n      tag_5\n      jumpi\n      dup1\n      0xa694fc3a\n      eq\n      tag_6\n      jumpi\n      dup1\n      0xce5fc8d0\n      eq\n      tag_7\n      jumpi\n    tag_2:\n      0x00\n      dup1\n      revert\n        /* \"contracts/ERC20StakingPool.sol\":19665:19756  function totalSupply() public view returns (uint256) {\r... */\n    tag_3:\n      tag_8\n      tag_9\n      jump\t// in\n    tag_8:\n      mload(0x40)\n      dup1\n      dup3\n      dup2\n      mstore\n      0x20\n      add\n      swap2\n      pop\n      pop\n      mload(0x40)\n      dup1\n      swap2\n      sub\n      swap1\n      return\n        /* \"contracts/ERC20StakingPool.sol\":20511:21056  function withdraw(uint256 amount) public virtual {\r... */\n    tag_4:\n      tag_10\n      0x04\n      dup1\n      calldatasize\n      sub\n      0x20\n      dup2\n      lt\n      iszero\n      tag_11\n      jumpi\n      0x00\n      dup1\n      revert\n    tag_11:\n      dup2\n      add\n      swap1\n      dup1\n      dup1\n      calldataload\n      swap1\n      0x20\n      add\n      swap1\n      swap3\n      swap2\n      swap1\n      pop\n      pop\n      pop\n      tag_12\n      jump\t// in\n    tag_10:\n      stop\n        /* \"contracts/ERC20StakingPool.sol\":19873:19983  function balanceOf(address account) public view returns (uint256) {\r... */\n    tag_5:\n      tag_13\n      0x04\n      dup1\n      calldatasize\n      sub\n      0x20\n      dup2\n      lt\n      iszero\n      tag_14\n      jumpi\n      0x00\n      dup1\n      revert\n    tag_14:\n      dup2\n      add\n      swap1\n      dup1\n      dup1\n      calldataload\n      0xffffffffffffffffffffffffffffffffffffffff\n      and\n      swap1\n      0x20\n      add\n      swap1\n      swap3\n      swap2\n      swap1\n      pop\n      pop\n      pop\n      tag_15\n      jump\t// in\n    tag_13:\n      mload(0x40)\n      dup1\n      dup3\n      dup2\n      mstore\n      0x20\n      add\n      swap2\n      pop\n      pop\n      mload(0x40)\n      dup1\n      swap2\n      sub\n      swap1\n      return\n        /* \"contracts/ERC20StakingPool.sol\":20085:20423  function stake(uint256 amount) public virtual {\r... */\n    tag_6:\n      tag_16\n      0x04\n      dup1\n      calldatasize\n      sub\n      0x20\n      dup2\n      lt\n      iszero\n      tag_17\n      jumpi\n      0x00\n      dup1\n      revert\n    tag_17:\n      dup2\n      add\n      swap1\n      dup1\n      dup1\n      calldataload\n      swap1\n      0x20\n      add\n      swap1\n      swap3\n      swap2\n      swap1\n      pop\n      pop\n      pop\n      tag_18\n      jump\t// in\n    tag_16:\n      stop\n        /* \"contracts/ERC20StakingPool.sol\":19429:19446  IERC20 public lpt */\n    tag_7:\n      tag_19\n      tag_20\n      jump\t// in\n    tag_19:\n      mload(0x40)\n      dup1\n      dup3\n      0xffffffffffffffffffffffffffffffffffffffff\n      and\n      dup2\n      mstore\n      0x20\n      add\n      swap2\n      pop\n      pop\n      mload(0x40)\n      dup1\n      swap2\n      sub\n      swap1\n      return\n        /* \"contracts/ERC20StakingPool.sol\":19665:19756  function totalSupply() public view returns (uint256) {\r... */\n    tag_9:\n        /* \"contracts/ERC20StakingPool.sol\":19709:19716  uint256 */\n      0x00\n        /* \"contracts/ERC20StakingPool.sol\":19736:19748  _totalSupply */\n      sload(0x01)\n        /* \"contracts/ERC20StakingPool.sol\":19729:19748  return _totalSupply */\n      swap1\n      pop\n        /* \"contracts/ERC20StakingPool.sol\":19665:19756  function totalSupply() public view returns (uint256) {\r... */\n      swap1\n      jump\t// out\n        /* \"contracts/ERC20StakingPool.sol\":20511:21056  function withdraw(uint256 amount) public virtual {\r... */\n    tag_12:\n        /* \"contracts/ERC20StakingPool.sol\":20608:20629  uint256 directorShare */\n      0x00\n        /* \"contracts/ERC20StakingPool.sol\":20632:20641  _balances */\n      0x02\n        /* \"contracts/ERC20StakingPool.sol\":20632:20653  _balances[msg.sender] */\n      0x00\n        /* \"contracts/ERC20StakingPool.sol\":20642:20652  msg.sender */\n      caller\n        /* \"contracts/ERC20StakingPool.sol\":20632:20653  _balances[msg.sender] */\n      0xffffffffffffffffffffffffffffffffffffffff\n      and\n      0xffffffffffffffffffffffffffffffffffffffff\n      and\n      dup2\n      mstore\n      0x20\n      add\n      swap1\n      dup2\n      mstore\n      0x20\n      add\n      0x00\n      keccak256\n      sload\n        /* \"contracts/ERC20StakingPool.sol\":20608:20653  uint256 directorShare = _balances[msg.sender] */\n      swap1\n      pop\n        /* \"contracts/ERC20StakingPool.sol\":20741:20747  amount */\n      dup2\n        /* \"contracts/ERC20StakingPool.sol\":20724:20737  directorShare */\n      dup2\n        /* \"contracts/ERC20StakingPool.sol\":20724:20747  directorShare >= amount */\n      lt\n      iszero\n        /* \"contracts/ERC20StakingPool.sol\":20716:20795  require(directorShare >= amount, 'withdraw request greater than staked amount') */\n      tag_23\n      jumpi\n      mload(0x40)\n      0x08c379a000000000000000000000000000000000000000000000000000000000\n      dup2\n      mstore\n      0x04\n      add\n      dup1\n      dup1\n      0x20\n      add\n      dup3\n      dup2\n      sub\n      dup3\n      mstore\n      0x2b\n      dup2\n      mstore\n      0x20\n      add\n      dup1\n      data_f29ed7fc561f9739237966a5dd12e925d81e5f10e77bc59c72af68e298e197a2\n      0x2b\n      swap2\n      codecopy\n      0x40\n      add\n      swap2\n      pop\n      pop\n      mload(0x40)\n      dup1\n      swap2\n      sub\n      swap1\n      revert\n    tag_23:\n        /* \"contracts/ERC20StakingPool.sol\":20846:20870  _totalSupply.sub(amount) */\n      tag_24\n        /* \"contracts/ERC20StakingPool.sol\":20863:20869  amount */\n      dup3\n        /* \"contracts/ERC20StakingPool.sol\":20846:20858  _totalSupply */\n      sload(0x01)\n        /* \"contracts/ERC20StakingPool.sol\":20846:20862  _totalSupply.sub */\n      tag_25\n      swap1\n        /* \"contracts/ERC20StakingPool.sol\":20846:20870  _totalSupply.sub(amount) */\n      swap2\n      swap1\n      0xffffffff\n      and\n      jump\t// in\n    tag_24:\n        /* \"contracts/ERC20StakingPool.sol\":20831:20843  _totalSupply */\n      0x01\n        /* \"contracts/ERC20StakingPool.sol\":20831:20870  _totalSupply = _totalSupply.sub(amount) */\n      dup2\n      swap1\n      sstore\n      pop\n        /* \"contracts/ERC20StakingPool.sol\":20930:20963  _balances[msg.sender].sub(amount) */\n      tag_26\n        /* \"contracts/ERC20StakingPool.sol\":20956:20962  amount */\n      dup3\n        /* \"contracts/ERC20StakingPool.sol\":20930:20939  _balances */\n      0x02\n        /* \"contracts/ERC20StakingPool.sol\":20930:20951  _balances[msg.sender] */\n      0x00\n        /* \"contracts/ERC20StakingPool.sol\":20940:20950  msg.sender */\n      caller\n        /* \"contracts/ERC20StakingPool.sol\":20930:20951  _balances[msg.sender] */\n      0xffffffffffffffffffffffffffffffffffffffff\n      and\n      0xffffffffffffffffffffffffffffffffffffffff\n      and\n      dup2\n      mstore\n      0x20\n      add\n      swap1\n      dup2\n      mstore\n      0x20\n      add\n      0x00\n      keccak256\n      sload\n        /* \"contracts/ERC20StakingPool.sol\":20930:20955  _balances[msg.sender].sub */\n      tag_25\n      swap1\n        /* \"contracts/ERC20StakingPool.sol\":20930:20963  _balances[msg.sender].sub(amount) */\n      swap2\n      swap1\n      0xffffffff\n      and\n      jump\t// in\n    tag_26:\n        /* \"contracts/ERC20StakingPool.sol\":20906:20915  _balances */\n      0x02\n        /* \"contracts/ERC20StakingPool.sol\":20906:20927  _balances[msg.sender] */\n      0x00\n        /* \"contracts/ERC20StakingPool.sol\":20916:20926  msg.sender */\n      caller\n        /* \"contracts/ERC20StakingPool.sol\":20906:20927  _balances[msg.sender] */\n      0xffffffffffffffffffffffffffffffffffffffff\n      and\n      0xffffffffffffffffffffffffffffffffffffffff\n      and\n      dup2\n      mstore\n      0x20\n      add\n      swap1\n      dup2\n      mstore\n      0x20\n      add\n      0x00\n      keccak256\n        /* \"contracts/ERC20StakingPool.sol\":20906:20963  _balances[msg.sender] = _balances[msg.sender].sub(amount) */\n      dup2\n      swap1\n      sstore\n      pop\n        /* \"contracts/ERC20StakingPool.sol\":21012:21048  lpt.safeTransfer(msg.sender, amount) */\n      tag_27\n        /* \"contracts/ERC20StakingPool.sol\":21029:21039  msg.sender */\n      caller\n        /* \"contracts/ERC20StakingPool.sol\":21041:21047  amount */\n      dup4\n        /* \"contracts/ERC20StakingPool.sol\":21012:21015  lpt */\n      0x00\n      dup1\n      sload\n      swap1\n      0x0100\n      exp\n      swap1\n      div\n      0xffffffffffffffffffffffffffffffffffffffff\n      and\n        /* \"contracts/ERC20StakingPool.sol\":21012:21028  lpt.safeTransfer */\n      0xffffffffffffffffffffffffffffffffffffffff\n      and\n      tag_28\n      swap1\n        /* \"contracts/ERC20StakingPool.sol\":21012:21048  lpt.safeTransfer(msg.sender, amount) */\n      swap3\n      swap2\n      swap1\n      0xffffffff\n      and\n      jump\t// in\n    tag_27:\n        /* \"contracts/ERC20StakingPool.sol\":20511:21056  function withdraw(uint256 amount) public virtual {\r... */\n      pop\n      pop\n      jump\t// out\n        /* \"contracts/ERC20StakingPool.sol\":19873:19983  function balanceOf(address account) public view returns (uint256) {\r... */\n    tag_15:\n        /* \"contracts/ERC20StakingPool.sol\":19930:19937  uint256 */\n      0x00\n        /* \"contracts/ERC20StakingPool.sol\":19957:19966  _balances */\n      0x02\n        /* \"contracts/ERC20StakingPool.sol\":19957:19975  _balances[account] */\n      0x00\n        /* \"contracts/ERC20StakingPool.sol\":19967:19974  account */\n      dup4\n        /* \"contracts/ERC20StakingPool.sol\":19957:19975  _balances[account] */\n      0xffffffffffffffffffffffffffffffffffffffff\n      and\n      0xffffffffffffffffffffffffffffffffffffffff\n      and\n      dup2\n      mstore\n      0x20\n      add\n      swap1\n      dup2\n      mstore\n      0x20\n      add\n      0x00\n      keccak256\n      sload\n        /* \"contracts/ERC20StakingPool.sol\":19950:19975  return _balances[account] */\n      swap1\n      pop\n        /* \"contracts/ERC20StakingPool.sol\":19873:19983  function balanceOf(address account) public view returns (uint256) {\r... */\n      swap2\n      swap1\n      pop\n      jump\t// out\n        /* \"contracts/ERC20StakingPool.sol\":20085:20423  function stake(uint256 amount) public virtual {\r... */\n    tag_18:\n        /* \"contracts/ERC20StakingPool.sol\":20182:20206  _totalSupply.add(amount) */\n      tag_31\n        /* \"contracts/ERC20StakingPool.sol\":20199:20205  amount */\n      dup2\n        /* \"contracts/ERC20StakingPool.sol\":20182:20194  _totalSupply */\n      sload(0x01)\n        /* \"contracts/ERC20StakingPool.sol\":20182:20198  _totalSupply.add */\n      tag_32\n      swap1\n        /* \"contracts/ERC20StakingPool.sol\":20182:20206  _totalSupply.add(amount) */\n      swap2\n      swap1\n      0xffffffff\n      and\n      jump\t// in\n    tag_31:\n        /* \"contracts/ERC20StakingPool.sol\":20167:20179  _totalSupply */\n      0x01\n        /* \"contracts/ERC20StakingPool.sol\":20167:20206  _totalSupply = _totalSupply.add(amount) */\n      dup2\n      swap1\n      sstore\n      pop\n        /* \"contracts/ERC20StakingPool.sol\":20272:20305  _balances[msg.sender].add(amount) */\n      tag_33\n        /* \"contracts/ERC20StakingPool.sol\":20298:20304  amount */\n      dup2\n        /* \"contracts/ERC20StakingPool.sol\":20272:20281  _balances */\n      0x02\n        /* \"contracts/ERC20StakingPool.sol\":20272:20293  _balances[msg.sender] */\n      0x00\n        /* \"contracts/ERC20StakingPool.sol\":20282:20292  msg.sender */\n      caller\n        /* \"contracts/ERC20StakingPool.sol\":20272:20293  _balances[msg.sender] */\n      0xffffffffffffffffffffffffffffffffffffffff\n      and\n      0xffffffffffffffffffffffffffffffffffffffff\n      and\n      dup2\n      mstore\n      0x20\n      add\n      swap1\n      dup2\n      mstore\n      0x20\n      add\n      0x00\n      keccak256\n      sload\n        /* \"contracts/ERC20StakingPool.sol\":20272:20297  _balances[msg.sender].add */\n      tag_32\n      swap1\n        /* \"contracts/ERC20StakingPool.sol\":20272:20305  _balances[msg.sender].add(amount) */\n      swap2\n      swap1\n      0xffffffff\n      and\n      jump\t// in\n    tag_33:\n        /* \"contracts/ERC20StakingPool.sol\":20248:20257  _balances */\n      0x02\n        /* \"contracts/ERC20StakingPool.sol\":20248:20269  _balances[msg.sender] */\n      0x00\n        /* \"contracts/ERC20StakingPool.sol\":20258:20268  msg.sender */\n      caller\n        /* \"contracts/ERC20StakingPool.sol\":20248:20269  _balances[msg.sender] */\n      0xffffffffffffffffffffffffffffffffffffffff\n      and\n      0xffffffffffffffffffffffffffffffffffffffff\n      and\n      dup2\n      mstore\n      0x20\n      add\n      swap1\n      dup2\n      mstore\n      0x20\n      add\n      0x00\n      keccak256\n        /* \"contracts/ERC20StakingPool.sol\":20248:20305  _balances[msg.sender] = _balances[msg.sender].add(amount) */\n      dup2\n      swap1\n      sstore\n      pop\n        /* \"contracts/ERC20StakingPool.sol\":20360:20415  lpt.safeTransferFrom(msg.sender, address(this), amount) */\n      tag_34\n        /* \"contracts/ERC20StakingPool.sol\":20381:20391  msg.sender */\n      caller\n        /* \"contracts/ERC20StakingPool.sol\":20401:20405  this */\n      address\n        /* \"contracts/ERC20StakingPool.sol\":20408:20414  amount */\n      dup4\n        /* \"contracts/ERC20StakingPool.sol\":20360:20363  lpt */\n      0x00\n      dup1\n      sload\n      swap1\n      0x0100\n      exp\n      swap1\n      div\n      0xffffffffffffffffffffffffffffffffffffffff\n      and\n        /* \"contracts/ERC20StakingPool.sol\":20360:20380  lpt.safeTransferFrom */\n      0xffffffffffffffffffffffffffffffffffffffff\n      and\n      tag_35\n      swap1\n        /* \"contracts/ERC20StakingPool.sol\":20360:20415  lpt.safeTransferFrom(msg.sender, address(this), amount) */\n      swap4\n      swap3\n      swap2\n      swap1\n      0xffffffff\n      and\n      jump\t// in\n    tag_34:\n        /* \"contracts/ERC20StakingPool.sol\":20085:20423  function stake(uint256 amount) public virtual {\r... */\n      pop\n      jump\t// out\n        /* \"contracts/ERC20StakingPool.sol\":19429:19446  IERC20 public lpt */\n    tag_20:\n      0x00\n      dup1\n      sload\n      swap1\n      0x0100\n      exp\n      swap1\n      div\n      0xffffffffffffffffffffffffffffffffffffffff\n      and\n      dup2\n      jump\t// out\n        /* \"contracts/ERC20StakingPool.sol\":3428:3564  function sub(uint256 a, uint256 b) internal pure returns (uint256) {\r... */\n    tag_25:\n        /* \"contracts/ERC20StakingPool.sol\":3486:3493  uint256 */\n      0x00\n        /* \"contracts/ERC20StakingPool.sol\":3513:3556  sub(a, b, \"SafeMath: subtraction overflow\") */\n      tag_37\n        /* \"contracts/ERC20StakingPool.sol\":3517:3518  a */\n      dup4\n        /* \"contracts/ERC20StakingPool.sol\":3520:3521  b */\n      dup4\n        /* \"contracts/ERC20StakingPool.sol\":3513:3556  sub(a, b, \"SafeMath: subtraction overflow\") */\n      mload(0x40)\n      dup1\n      0x40\n      add\n      0x40\n      mstore\n      dup1\n      0x1e\n      dup2\n      mstore\n      0x20\n      add\n      0x536166654d6174683a207375627472616374696f6e206f766572666c6f770000\n      dup2\n      mstore\n      pop\n        /* \"contracts/ERC20StakingPool.sol\":3513:3516  sub */\n      tag_38\n        /* \"contracts/ERC20StakingPool.sol\":3513:3556  sub(a, b, \"SafeMath: subtraction overflow\") */\n      jump\t// in\n    tag_37:\n        /* \"contracts/ERC20StakingPool.sol\":3506:3556  return sub(a, b, \"SafeMath: subtraction overflow\") */\n      swap1\n      pop\n        /* \"contracts/ERC20StakingPool.sol\":3428:3564  function sub(uint256 a, uint256 b) internal pure returns (uint256) {\r... */\n      swap3\n      swap2\n      pop\n      pop\n      jump\t// out\n        /* \"contracts/ERC20StakingPool.sol\":16178:16355  function safeTransfer(IERC20 token, address to, uint256 value) internal {\r... */\n    tag_28:\n        /* \"contracts/ERC20StakingPool.sol\":16261:16347  _callOptionalReturn(token, abi.encodeWithSelector(token.transfer.selector, to, value)) */\n      tag_40\n        /* \"contracts/ERC20StakingPool.sol\":16281:16286  token */\n      dup4\n        /* \"contracts/ERC20StakingPool.sol\":16311:16334  token.transfer.selector */\n      shl(0xe0, 0xa9059cbb)\n        /* \"contracts/ERC20StakingPool.sol\":16336:16338  to */\n      dup5\n        /* \"contracts/ERC20StakingPool.sol\":16340:16345  value */\n      dup5\n        /* \"contracts/ERC20StakingPool.sol\":16288:16346  abi.encodeWithSelector(token.transfer.selector, to, value) */\n      add(0x24, mload(0x40))\n      dup1\n      dup4\n      0xffffffffffffffffffffffffffffffffffffffff\n      and\n      dup2\n      mstore\n      0x20\n      add\n      dup3\n      dup2\n      mstore\n      0x20\n      add\n      swap3\n      pop\n      pop\n      pop\n      mload(0x40)\n      0x20\n      dup2\n      dup4\n      sub\n      sub\n      dup2\n      mstore\n      swap1\n      0x40\n      mstore\n      swap1\n      not(0xffffffffffffffffffffffffffffffffffffffffffffffffffffffff)\n      and\n      0x20\n      dup3\n      add\n      dup1\n      mload\n      0xffffffffffffffffffffffffffffffffffffffffffffffffffffffff\n      dup4\n      dup2\n      dup4\n      and\n      or\n      dup4\n      mstore\n      pop\n      pop\n      pop\n      pop\n        /* \"contracts/ERC20StakingPool.sol\":16261:16280  _callOptionalReturn */\n      tag_41\n        /* \"contracts/ERC20StakingPool.sol\":16261:16347  _callOptionalReturn(token, abi.encodeWithSelector(token.transfer.selector, to, value)) */\n      jump\t// in\n    tag_40:\n        /* \"contracts/ERC20StakingPool.sol\":16178:16355  function safeTransfer(IERC20 token, address to, uint256 value) internal {\r... */\n      pop\n      pop\n      pop\n      jump\t// out\n        /* \"contracts/ERC20StakingPool.sol\":2964:3145  function add(uint256 a, uint256 b) internal pure returns (uint256) {\r... */\n    tag_32:\n        /* \"contracts/ERC20StakingPool.sol\":3022:3029  uint256 */\n      0x00\n        /* \"contracts/ERC20StakingPool.sol\":3042:3051  uint256 c */\n      dup1\n        /* \"contracts/ERC20StakingPool.sol\":3058:3059  b */\n      dup3\n        /* \"contracts/ERC20StakingPool.sol\":3054:3055  a */\n      dup5\n        /* \"contracts/ERC20StakingPool.sol\":3054:3059  a + b */\n      add\n        /* \"contracts/ERC20StakingPool.sol\":3042:3059  uint256 c = a + b */\n      swap1\n      pop\n        /* \"contracts/ERC20StakingPool.sol\":3083:3084  a */\n      dup4\n        /* \"contracts/ERC20StakingPool.sol\":3078:3079  c */\n      dup2\n        /* \"contracts/ERC20StakingPool.sol\":3078:3084  c >= a */\n      lt\n      iszero\n        /* \"contracts/ERC20StakingPool.sol\":3070:3116  require(c >= a, \"SafeMath: addition overflow\") */\n      tag_43\n      jumpi\n      mload(0x40)\n      0x08c379a000000000000000000000000000000000000000000000000000000000\n      dup2\n      mstore\n      0x04\n      add\n      dup1\n      dup1\n      0x20\n      add\n      dup3\n      dup2\n      sub\n      dup3\n      mstore\n      0x1b\n      dup2\n      mstore\n      0x20\n      add\n      dup1\n      0x536166654d6174683a206164646974696f6e206f766572666c6f770000000000\n      dup2\n      mstore\n      pop\n      0x20\n      add\n      swap2\n      pop\n      pop\n      mload(0x40)\n      dup1\n      swap2\n      sub\n      swap1\n      revert\n    tag_43:\n        /* \"contracts/ERC20StakingPool.sol\":3136:3137  c */\n      dup1\n        /* \"contracts/ERC20StakingPool.sol\":3129:3137  return c */\n      swap2\n      pop\n      pop\n        /* \"contracts/ERC20StakingPool.sol\":2964:3145  function add(uint256 a, uint256 b) internal pure returns (uint256) {\r... */\n      swap3\n      swap2\n      pop\n      pop\n      jump\t// out\n        /* \"contracts/ERC20StakingPool.sol\":16363:16568  function safeTransferFrom(IERC20 token, address from, address to, uint256 value) internal {\r... */\n    tag_35:\n        /* \"contracts/ERC20StakingPool.sol\":16464:16560  _callOptionalReturn(token, abi.encodeWithSelector(token.transferFrom.selector, from, to, value)) */\n      tag_45\n        /* \"contracts/ERC20StakingPool.sol\":16484:16489  token */\n      dup5\n        /* \"contracts/ERC20StakingPool.sol\":16514:16541  token.transferFrom.selector */\n      shl(0xe0, 0x23b872dd)\n        /* \"contracts/ERC20StakingPool.sol\":16543:16547  from */\n      dup6\n        /* \"contracts/ERC20StakingPool.sol\":16549:16551  to */\n      dup6\n        /* \"contracts/ERC20StakingPool.sol\":16553:16558  value */\n      dup6\n        /* \"contracts/ERC20StakingPool.sol\":16491:16559  abi.encodeWithSelector(token.transferFrom.selector, from, to, value) */\n      add(0x24, mload(0x40))\n      dup1\n      dup5\n      0xffffffffffffffffffffffffffffffffffffffff\n      and\n      dup2\n      mstore\n      0x20\n      add\n      dup4\n      0xffffffffffffffffffffffffffffffffffffffff\n      and\n      dup2\n      mstore\n      0x20\n      add\n      dup3\n      dup2\n      mstore\n      0x20\n      add\n      swap4\n      pop\n      pop\n      pop\n      pop\n      mload(0x40)\n      0x20\n      dup2\n      dup4\n      sub\n      sub\n      dup2\n      mstore\n      swap1\n      0x40\n      mstore\n      swap1\n      not(0xffffffffffffffffffffffffffffffffffffffffffffffffffffffff)\n      and\n      0x20\n      dup3\n      add\n      dup1\n      mload\n      0xffffffffffffffffffffffffffffffffffffffffffffffffffffffff\n      dup4\n      dup2\n      dup4\n      and\n      or\n      dup4\n      mstore\n      pop\n      pop\n      pop\n      pop\n        /* \"contracts/ERC20StakingPool.sol\":16464:16483  _callOptionalReturn */\n      tag_41\n        /* \"contracts/ERC20StakingPool.sol\":16464:16560  _callOptionalReturn(token, abi.encodeWithSelector(token.transferFrom.selector, from, to, value)) */\n      jump\t// in\n    tag_45:\n        /* \"contracts/ERC20StakingPool.sol\":16363:16568  function safeTransferFrom(IERC20 token, address from, address to, uint256 value) internal {\r... */\n      pop\n      pop\n      pop\n      pop\n      jump\t// out\n        /* \"contracts/ERC20StakingPool.sol\":3867:4059  function sub(uint256 a, uint256 b, string memory errorMessage) internal pure returns (uint256) {\r... */\n    tag_38:\n        /* \"contracts/ERC20StakingPool.sol\":3953:3960  uint256 */\n      0x00\n        /* \"contracts/ERC20StakingPool.sol\":3986:3987  a */\n      dup4\n        /* \"contracts/ERC20StakingPool.sol\":3981:3982  b */\n      dup4\n        /* \"contracts/ERC20StakingPool.sol\":3981:3987  b <= a */\n      gt\n      iszero\n        /* \"contracts/ERC20StakingPool.sol\":3989:4001  errorMessage */\n      dup3\n        /* \"contracts/ERC20StakingPool.sol\":3973:4002  require(b <= a, errorMessage) */\n      swap1\n      tag_47\n      jumpi\n      mload(0x40)\n      0x08c379a000000000000000000000000000000000000000000000000000000000\n      dup2\n      mstore\n      0x04\n      add\n      dup1\n      dup1\n      0x20\n      add\n      dup3\n      dup2\n      sub\n      dup3\n      mstore\n      dup4\n      dup2\n      dup2\n      mload\n      dup2\n      mstore\n      0x20\n      add\n      swap2\n      pop\n      dup1\n      mload\n      swap1\n      0x20\n      add\n      swap1\n      dup1\n      dup4\n      dup4\n      0x00\n    tag_48:\n      dup4\n      dup2\n      lt\n      iszero\n      tag_50\n      jumpi\n      dup1\n      dup3\n      add\n      mload\n      dup2\n      dup5\n      add\n      mstore\n      0x20\n      dup2\n      add\n      swap1\n      pop\n      jump(tag_48)\n    tag_50:\n      pop\n      pop\n      pop\n      pop\n      swap1\n      pop\n      swap1\n      dup2\n      add\n      swap1\n      0x1f\n      and\n      dup1\n      iszero\n      tag_51\n      jumpi\n      dup1\n      dup3\n      sub\n      dup1\n      mload\n      0x01\n      dup4\n      0x20\n      sub\n      0x0100\n      exp\n      sub\n      not\n      and\n      dup2\n      mstore\n      0x20\n      add\n      swap2\n      pop\n    tag_51:\n      pop\n      swap3\n      pop\n      pop\n      pop\n      mload(0x40)\n      dup1\n      swap2\n      sub\n      swap1\n      revert\n    tag_47:\n      pop\n        /* \"contracts/ERC20StakingPool.sol\":4013:4022  uint256 c */\n      0x00\n        /* \"contracts/ERC20StakingPool.sol\":4029:4030  b */\n      dup4\n        /* \"contracts/ERC20StakingPool.sol\":4025:4026  a */\n      dup6\n        /* \"contracts/ERC20StakingPool.sol\":4025:4030  a - b */\n      sub\n        /* \"contracts/ERC20StakingPool.sol\":4013:4030  uint256 c = a - b */\n      swap1\n      pop\n        /* \"contracts/ERC20StakingPool.sol\":4050:4051  c */\n      dup1\n        /* \"contracts/ERC20StakingPool.sol\":4043:4051  return c */\n      swap2\n      pop\n      pop\n        /* \"contracts/ERC20StakingPool.sol\":3867:4059  function sub(uint256 a, uint256 b, string memory errorMessage) internal pure returns (uint256) {\r... */\n      swap4\n      swap3\n      pop\n      pop\n      pop\n      jump\t// out\n        /* \"contracts/ERC20StakingPool.sol\":18483:19244  function _callOptionalReturn(IERC20 token, bytes memory data) private {\r... */\n    tag_41:\n        /* \"contracts/ERC20StakingPool.sol\":18907:18930  bytes memory returndata */\n      0x60\n        /* \"contracts/ERC20StakingPool.sol\":18933:19002  address(token).functionCall(data, \"SafeERC20: low-level call failed\") */\n      tag_53\n        /* \"contracts/ERC20StakingPool.sol\":18961:18965  data */\n      dup3\n        /* \"contracts/ERC20StakingPool.sol\":18933:19002  address(token).functionCall(data, \"SafeERC20: low-level call failed\") */\n      mload(0x40)\n      dup1\n      0x40\n      add\n      0x40\n      mstore\n      dup1\n      0x20\n      dup2\n      mstore\n      0x20\n      add\n      0x5361666545524332303a206c6f772d6c6576656c2063616c6c206661696c6564\n      dup2\n      mstore\n      pop\n        /* \"contracts/ERC20StakingPool.sol\":18941:18946  token */\n      dup6\n        /* \"contracts/ERC20StakingPool.sol\":18933:18960  address(token).functionCall */\n      0xffffffffffffffffffffffffffffffffffffffff\n      and\n      tag_54\n      swap1\n        /* \"contracts/ERC20StakingPool.sol\":18933:19002  address(token).functionCall(data, \"SafeERC20: low-level call failed\") */\n      swap3\n      swap2\n      swap1\n      0xffffffff\n      and\n      jump\t// in\n    tag_53:\n        /* \"contracts/ERC20StakingPool.sol\":18907:19002  bytes memory returndata = address(token).functionCall(data, \"SafeERC20: low-level call failed\") */\n      swap1\n      pop\n        /* \"contracts/ERC20StakingPool.sol\":19037:19038  0 */\n      0x00\n        /* \"contracts/ERC20StakingPool.sol\":19017:19027  returndata */\n      dup2\n        /* \"contracts/ERC20StakingPool.sol\":19017:19034  returndata.length */\n      mload\n        /* \"contracts/ERC20StakingPool.sol\":19017:19038  returndata.length > 0 */\n      gt\n        /* \"contracts/ERC20StakingPool.sol\":19013:19237  if (returndata.length > 0) { // Return data is optional\r... */\n      iszero\n      tag_55\n      jumpi\n        /* \"contracts/ERC20StakingPool.sol\":19159:19169  returndata */\n      dup1\n        /* \"contracts/ERC20StakingPool.sol\":19148:19178  abi.decode(returndata, (bool)) */\n      dup1\n      0x20\n      add\n      swap1\n      mload\n      0x20\n      dup2\n      lt\n      iszero\n      tag_56\n      jumpi\n      0x00\n      dup1\n      revert\n    tag_56:\n      dup2\n      add\n      swap1\n      dup1\n      dup1\n      mload\n      swap1\n      0x20\n      add\n      swap1\n      swap3\n      swap2\n      swap1\n      pop\n      pop\n      pop\n        /* \"contracts/ERC20StakingPool.sol\":19140:19225  require(abi.decode(returndata, (bool)), \"SafeERC20: ERC20 operation did not succeed\") */\n      tag_57\n      jumpi\n      mload(0x40)\n      0x08c379a000000000000000000000000000000000000000000000000000000000\n      dup2\n      mstore\n      0x04\n      add\n      dup1\n      dup1\n      0x20\n      add\n      dup3\n      dup2\n      sub\n      dup3\n      mstore\n      0x2a\n      dup2\n      mstore\n      0x20\n      add\n      dup1\n      data_e11ad79d1e4a7f2e5f376964cb99e8e8f7904e3fc16a109f7a7ecb9aa7956dcd\n      0x2a\n      swap2\n      codecopy\n      0x40\n      add\n      swap2\n      pop\n      pop\n      mload(0x40)\n      dup1\n      swap2\n      sub\n      swap1\n      revert\n    tag_57:\n        /* \"contracts/ERC20StakingPool.sol\":19013:19237  if (returndata.length > 0) { // Return data is optional\r... */\n    tag_55:\n        /* \"contracts/ERC20StakingPool.sol\":18483:19244  function _callOptionalReturn(IERC20 token, bytes memory data) private {\r... */\n      pop\n      pop\n      pop\n      jump\t// out\n        /* \"contracts/ERC20StakingPool.sol\":11643:11839  function functionCall(address target, bytes memory data, string memory errorMessage) internal returns (bytes memory) {\r... */\n    tag_54:\n        /* \"contracts/ERC20StakingPool.sol\":11746:11758  bytes memory */\n      0x60\n        /* \"contracts/ERC20StakingPool.sol\":11778:11831  _functionCallWithValue(target, data, 0, errorMessage) */\n      tag_59\n        /* \"contracts/ERC20StakingPool.sol\":11801:11807  target */\n      dup5\n        /* \"contracts/ERC20StakingPool.sol\":11809:11813  data */\n      dup5\n        /* \"contracts/ERC20StakingPool.sol\":11815:11816  0 */\n      0x00\n        /* \"contracts/ERC20StakingPool.sol\":11818:11830  errorMessage */\n      dup6\n        /* \"contracts/ERC20StakingPool.sol\":11778:11800  _functionCallWithValue */\n      tag_60\n        /* \"contracts/ERC20StakingPool.sol\":11778:11831  _functionCallWithValue(target, data, 0, errorMessage) */\n      jump\t// in\n    tag_59:\n        /* \"contracts/ERC20StakingPool.sol\":11771:11831  return _functionCallWithValue(target, data, 0, errorMessage) */\n      swap1\n      pop\n        /* \"contracts/ERC20StakingPool.sol\":11643:11839  function functionCall(address target, bytes memory data, string memory errorMessage) internal returns (bytes memory) {\r... */\n      swap4\n      swap3\n      pop\n      pop\n      pop\n      jump\t// out\n        /* \"contracts/ERC20StakingPool.sol\":13020:13999  function _functionCallWithValue(address target, bytes memory data, uint256 weiValue, string memory errorMessage) private returns (bytes memory) {\r... */\n    tag_60:\n        /* \"contracts/ERC20StakingPool.sol\":13150:13162  bytes memory */\n      0x60\n        /* \"contracts/ERC20StakingPool.sol\":13183:13201  isContract(target) */\n      tag_62\n        /* \"contracts/ERC20StakingPool.sol\":13194:13200  target */\n      dup6\n        /* \"contracts/ERC20StakingPool.sol\":13183:13193  isContract */\n      tag_63\n        /* \"contracts/ERC20StakingPool.sol\":13183:13201  isContract(target) */\n      jump\t// in\n    tag_62:\n        /* \"contracts/ERC20StakingPool.sol\":13175:13235  require(isContract(target), \"Address: call to non-contract\") */\n      tag_64\n      jumpi\n      mload(0x40)\n      0x08c379a000000000000000000000000000000000000000000000000000000000\n      dup2\n      mstore\n      0x04\n      add\n      dup1\n      dup1\n      0x20\n      add\n      dup3\n      dup2\n      sub\n      dup3\n      mstore\n      0x1d\n      dup2\n      mstore\n      0x20\n      add\n      dup1\n      0x416464726573733a2063616c6c20746f206e6f6e2d636f6e7472616374000000\n      dup2\n      mstore\n      pop\n      0x20\n      add\n      swap2\n      pop\n      pop\n      mload(0x40)\n      dup1\n      swap2\n      sub\n      swap1\n      revert\n    tag_64:\n        /* \"contracts/ERC20StakingPool.sol\":13309:13321  bool success */\n      0x00\n        /* \"contracts/ERC20StakingPool.sol\":13323:13346  bytes memory returndata */\n      0x60\n        /* \"contracts/ERC20StakingPool.sol\":13350:13356  target */\n      dup7\n        /* \"contracts/ERC20StakingPool.sol\":13350:13361  target.call */\n      0xffffffffffffffffffffffffffffffffffffffff\n      and\n        /* \"contracts/ERC20StakingPool.sol\":13370:13378  weiValue */\n      dup6\n        /* \"contracts/ERC20StakingPool.sol\":13381:13385  data */\n      dup8\n        /* \"contracts/ERC20StakingPool.sol\":13350:13386  target.call{ value: weiValue }(data) */\n      mload(0x40)\n      dup1\n      dup3\n      dup1\n      mload\n      swap1\n      0x20\n      add\n      swap1\n      dup1\n      dup4\n      dup4\n    tag_65:\n      0x20\n      dup4\n      lt\n      tag_67\n      jumpi\n      dup1\n      mload\n      dup3\n      mstore\n      0x20\n      dup3\n      add\n      swap2\n      pop\n      0x20\n      dup2\n      add\n      swap1\n      pop\n      0x20\n      dup4\n      sub\n      swap3\n      pop\n      jump(tag_65)\n    tag_67:\n      0x01\n      dup4\n      0x20\n      sub\n      0x0100\n      exp\n      sub\n      dup1\n      not\n      dup3\n      mload\n      and\n      dup2\n      dup5\n      mload\n      and\n      dup1\n      dup3\n      or\n      dup6\n      mstore\n      pop\n      pop\n      pop\n      pop\n      pop\n      pop\n      swap1\n      pop\n      add\n      swap2\n      pop\n      pop\n      0x00\n      mload(0x40)\n      dup1\n      dup4\n      sub\n      dup2\n      dup6\n      dup8\n      gas\n      call\n      swap3\n      pop\n      pop\n      pop\n      returndatasize\n      dup1\n      0x00\n      dup2\n      eq\n      tag_70\n      jumpi\n      mload(0x40)\n      swap2\n      pop\n      and(add(returndatasize, 0x3f), not(0x1f))\n      dup3\n      add\n      0x40\n      mstore\n      returndatasize\n      dup3\n      mstore\n      returndatasize\n      0x00\n      0x20\n      dup5\n      add\n      returndatacopy\n      jump(tag_69)\n    tag_70:\n      0x60\n      swap2\n      pop\n    tag_69:\n      pop\n        /* \"contracts/ERC20StakingPool.sol\":13308:13386  (bool success, bytes memory returndata) = target.call{ value: weiValue }(data) */\n      swap2\n      pop\n      swap2\n      pop\n        /* \"contracts/ERC20StakingPool.sol\":13401:13408  success */\n      dup2\n        /* \"contracts/ERC20StakingPool.sol\":13397:13992  if (success) {\r... */\n      iszero\n      tag_71\n      jumpi\n        /* \"contracts/ERC20StakingPool.sol\":13432:13442  returndata */\n      dup1\n        /* \"contracts/ERC20StakingPool.sol\":13425:13442  return returndata */\n      swap3\n      pop\n      pop\n      pop\n      jump(tag_61)\n        /* \"contracts/ERC20StakingPool.sol\":13397:13992  if (success) {\r... */\n    tag_71:\n        /* \"contracts/ERC20StakingPool.sol\":13566:13567  0 */\n      0x00\n        /* \"contracts/ERC20StakingPool.sol\":13546:13556  returndata */\n      dup2\n        /* \"contracts/ERC20StakingPool.sol\":13546:13563  returndata.length */\n      mload\n        /* \"contracts/ERC20StakingPool.sol\":13546:13567  returndata.length > 0 */\n      gt\n        /* \"contracts/ERC20StakingPool.sol\":13542:13981  if (returndata.length > 0) {\r... */\n      iszero\n      tag_73\n      jumpi\n        /* \"contracts/ERC20StakingPool.sol\":13809:13819  returndata */\n      dup1\n        /* \"contracts/ERC20StakingPool.sol\":13803:13820  mload(returndata) */\n      mload\n        /* \"contracts/ERC20StakingPool.sol\":13870:13885  returndata_size */\n      dup1\n        /* \"contracts/ERC20StakingPool.sol\":13857:13867  returndata */\n      dup3\n        /* \"contracts/ERC20StakingPool.sol\":13853:13855  32 */\n      0x20\n        /* \"contracts/ERC20StakingPool.sol\":13849:13868  add(32, returndata) */\n      add\n        /* \"contracts/ERC20StakingPool.sol\":13842:13886  revert(add(32, returndata), returndata_size) */\n      revert\n        /* \"contracts/ERC20StakingPool.sol\":13757:13905  {\r... */\n    tag_73:\n        /* \"contracts/ERC20StakingPool.sol\":13952:13964  errorMessage */\n      dup4\n        /* \"contracts/ERC20StakingPool.sol\":13945:13965  revert(errorMessage) */\n      mload(0x40)\n      0x08c379a000000000000000000000000000000000000000000000000000000000\n      dup2\n      mstore\n      0x04\n      add\n      dup1\n      dup1\n      0x20\n      add\n      dup3\n      dup2\n      sub\n      dup3\n      mstore\n      dup4\n      dup2\n      dup2\n      mload\n      dup2\n      mstore\n      0x20\n      add\n      swap2\n      pop\n      dup1\n      mload\n      swap1\n      0x20\n      add\n      swap1\n      dup1\n      dup4\n      dup4\n      0x00\n    tag_75:\n      dup4\n      dup2\n      lt\n      iszero\n      tag_77\n      jumpi\n      dup1\n      dup3\n      add\n      mload\n      dup2\n      dup5\n      add\n      mstore\n      0x20\n      dup2\n      add\n      swap1\n      pop\n      jump(tag_75)\n    tag_77:\n      pop\n      pop\n      pop\n      pop\n      swap1\n      pop\n      swap1\n      dup2\n      add\n      swap1\n      0x1f\n      and\n      dup1\n      iszero\n      tag_78\n      jumpi\n      dup1\n      dup3\n      sub\n      dup1\n      mload\n      0x01\n      dup4\n      0x20\n      sub\n      0x0100\n      exp\n      sub\n      not\n      and\n      dup2\n      mstore\n      0x20\n      add\n      swap2\n      pop\n    tag_78:\n      pop\n      swap3\n      pop\n      pop\n      pop\n      mload(0x40)\n      dup1\n      swap2\n      sub\n      swap1\n      revert\n        /* \"contracts/ERC20StakingPool.sol\":13020:13999  function _functionCallWithValue(address target, bytes memory data, uint256 weiValue, string memory errorMessage) private returns (bytes memory) {\r... */\n    tag_61:\n      swap5\n      swap4\n      pop\n      pop\n      pop\n      pop\n      jump\t// out\n        /* \"contracts/ERC20StakingPool.sol\":8725:9147  function isContract(address account) internal view returns (bool) {\r... */\n    tag_63:\n        /* \"contracts/ERC20StakingPool.sol\":8785:8789  bool */\n      0x00\n        /* \"contracts/ERC20StakingPool.sol\":8993:9005  uint256 size */\n      dup1\n        /* \"contracts/ERC20StakingPool.sol\":9104:9111  account */\n      dup3\n        /* \"contracts/ERC20StakingPool.sol\":9092:9112  extcodesize(account) */\n      extcodesize\n        /* \"contracts/ERC20StakingPool.sol\":9084:9112  size := extcodesize(account) */\n      swap1\n      pop\n        /* \"contracts/ERC20StakingPool.sol\":9138:9139  0 */\n      0x00\n        /* \"contracts/ERC20StakingPool.sol\":9131:9135  size */\n      dup2\n        /* \"contracts/ERC20StakingPool.sol\":9131:9139  size > 0 */\n      gt\n        /* \"contracts/ERC20StakingPool.sol\":9124:9139  return size > 0 */\n      swap2\n      pop\n      pop\n        /* \"contracts/ERC20StakingPool.sol\":8725:9147  function isContract(address account) internal view returns (bool) {\r... */\n      swap2\n      swap1\n      pop\n      jump\t// out\n    stop\n    data_e11ad79d1e4a7f2e5f376964cb99e8e8f7904e3fc16a109f7a7ecb9aa7956dcd 5361666545524332303a204552433230206f7065726174696f6e20646964206e6f742073756363656564\n    data_f29ed7fc561f9739237966a5dd12e925d81e5f10e77bc59c72af68e298e197a2 776974686472617720726571756573742067726561746572207468616e207374616b656420616d6f756e74\n\n    auxdata: 0xa2646970667358221220227e58af0658ffaf7dee602e33406587ba3db2cbcdcffd2f2e3fd77c3eca8f6464736f6c634300060c0033\n}\n",
				"bytecode": {
					"linkReferences": {},
					"object": "608060405234801561001057600080fd5b50610b15806100206000396000f3fe608060405234801561001057600080fd5b50600436106100575760003560e01c806318160ddd1461005c5780632e1a7d4d1461007a57806370a08231146100a8578063a694fc3a14610100578063ce5fc8d01461012e575b600080fd5b610064610162565b6040518082815260200191505060405180910390f35b6100a66004803603602081101561009057600080fd5b810190808035906020019092919050505061016c565b005b6100ea600480360360208110156100be57600080fd5b81019080803573ffffffffffffffffffffffffffffffffffffffff169060200190929190505050610308565b6040518082815260200191505060405180910390f35b61012c6004803603602081101561011657600080fd5b8101908080359060200190929190505050610351565b005b610136610451565b604051808273ffffffffffffffffffffffffffffffffffffffff16815260200191505060405180910390f35b6000600154905090565b6000600260003373ffffffffffffffffffffffffffffffffffffffff1673ffffffffffffffffffffffffffffffffffffffff16815260200190815260200160002054905081811015610209576040517f08c379a000000000000000000000000000000000000000000000000000000000815260040180806020018281038252602b815260200180610ab5602b913960400191505060405180910390fd5b61021e8260015461047590919063ffffffff16565b60018190555061027682600260003373ffffffffffffffffffffffffffffffffffffffff1673ffffffffffffffffffffffffffffffffffffffff1681526020019081526020016000205461047590919063ffffffff16565b600260003373ffffffffffffffffffffffffffffffffffffffff1673ffffffffffffffffffffffffffffffffffffffff16815260200190815260200160002081905550610304338360008054906101000a900473ffffffffffffffffffffffffffffffffffffffff1673ffffffffffffffffffffffffffffffffffffffff166104bf9092919063ffffffff16565b5050565b6000600260008373ffffffffffffffffffffffffffffffffffffffff1673ffffffffffffffffffffffffffffffffffffffff168152602001908152602001600020549050919050565b6103668160015461056190919063ffffffff16565b6001819055506103be81600260003373ffffffffffffffffffffffffffffffffffffffff1673ffffffffffffffffffffffffffffffffffffffff1681526020019081526020016000205461056190919063ffffffff16565b600260003373ffffffffffffffffffffffffffffffffffffffff1673ffffffffffffffffffffffffffffffffffffffff1681526020019081526020016000208190555061044e33308360008054906101000a900473ffffffffffffffffffffffffffffffffffffffff1673ffffffffffffffffffffffffffffffffffffffff166105e9909392919063ffffffff16565b50565b60008054906101000a900473ffffffffffffffffffffffffffffffffffffffff1681565b60006104b783836040518060400160405280601e81526020017f536166654d6174683a207375627472616374696f6e206f766572666c6f7700008152506106aa565b905092915050565b61055c8363a9059cbb60e01b8484604051602401808373ffffffffffffffffffffffffffffffffffffffff16815260200182815260200192505050604051602081830303815290604052907bffffffffffffffffffffffffffffffffffffffffffffffffffffffff19166020820180517bffffffffffffffffffffffffffffffffffffffffffffffffffffffff838183161783525050505061076a565b505050565b6000808284019050838110156105df576040517f08c379a000000000000000000000000000000000000000000000000000000000815260040180806020018281038252601b8152602001807f536166654d6174683a206164646974696f6e206f766572666c6f77000000000081525060200191505060405180910390fd5b8091505092915050565b6106a4846323b872dd60e01b858585604051602401808473ffffffffffffffffffffffffffffffffffffffff1681526020018373ffffffffffffffffffffffffffffffffffffffff1681526020018281526020019350505050604051602081830303815290604052907bffffffffffffffffffffffffffffffffffffffffffffffffffffffff19166020820180517bffffffffffffffffffffffffffffffffffffffffffffffffffffffff838183161783525050505061076a565b50505050565b6000838311158290610757576040517f08c379a00000000000000000000000000000000000000000000000000000000081526004018080602001828103825283818151815260200191508051906020019080838360005b8381101561071c578082015181840152602081019050610701565b50505050905090810190601f1680156107495780820380516001836020036101000a031916815260200191505b509250505060405180910390fd5b5060008385039050809150509392505050565b60606107cc826040518060400160405280602081526020017f5361666545524332303a206c6f772d6c6576656c2063616c6c206661696c65648152508573ffffffffffffffffffffffffffffffffffffffff166108599092919063ffffffff16565b9050600081511115610854578080602001905160208110156107ed57600080fd5b8101908080519060200190929190505050610853576040517f08c379a000000000000000000000000000000000000000000000000000000000815260040180806020018281038252602a815260200180610a8b602a913960400191505060405180910390fd5b5b505050565b60606108688484600085610871565b90509392505050565b606061087c85610a77565b6108ee576040517f08c379a000000000000000000000000000000000000000000000000000000000815260040180806020018281038252601d8152602001807f416464726573733a2063616c6c20746f206e6f6e2d636f6e747261637400000081525060200191505060405180910390fd5b600060608673ffffffffffffffffffffffffffffffffffffffff1685876040518082805190602001908083835b6020831061093e578051825260208201915060208101905060208303925061091b565b6001836020036101000a03801982511681845116808217855250505050505090500191505060006040518083038185875af1925050503d80600081146109a0576040519150601f19603f3d011682016040523d82523d6000602084013e6109a5565b606091505b509150915081156109ba578092505050610a6f565b6000815111156109cd5780518082602001fd5b836040517f08c379a00000000000000000000000000000000000000000000000000000000081526004018080602001828103825283818151815260200191508051906020019080838360005b83811015610a34578082015181840152602081019050610a19565b50505050905090810190601f168015610a615780820380516001836020036101000a031916815260200191505b509250505060405180910390fd5b949350505050565b600080823b90506000811191505091905056fe5361666545524332303a204552433230206f7065726174696f6e20646964206e6f742073756363656564776974686472617720726571756573742067726561746572207468616e207374616b656420616d6f756e74a2646970667358221220227e58af0658ffaf7dee602e33406587ba3db2cbcdcffd2f2e3fd77c3eca8f6464736f6c634300060c0033",
					"opcodes": "PUSH1 0x80 PUSH1 0x40 MSTORE CALLVALUE DUP1 ISZERO PUSH2 0x10 JUMPI PUSH1 0x0 DUP1 REVERT JUMPDEST POP PUSH2 0xB15 DUP1 PUSH2 0x20 PUSH1 0x0 CODECOPY PUSH1 0x0 RETURN INVALID PUSH1 0x80 PUSH1 0x40 MSTORE CALLVALUE DUP1 ISZERO PUSH2 0x10 JUMPI PUSH1 0x0 DUP1 REVERT JUMPDEST POP PUSH1 0x4 CALLDATASIZE LT PUSH2 0x57 JUMPI PUSH1 0x0 CALLDATALOAD PUSH1 0xE0 SHR DUP1 PUSH4 0x18160DDD EQ PUSH2 0x5C JUMPI DUP1 PUSH4 0x2E1A7D4D EQ PUSH2 0x7A JUMPI DUP1 PUSH4 0x70A08231 EQ PUSH2 0xA8 JUMPI DUP1 PUSH4 0xA694FC3A EQ PUSH2 0x100 JUMPI DUP1 PUSH4 0xCE5FC8D0 EQ PUSH2 0x12E JUMPI JUMPDEST PUSH1 0x0 DUP1 REVERT JUMPDEST PUSH2 0x64 PUSH2 0x162 JUMP JUMPDEST PUSH1 0x40 MLOAD DUP1 DUP3 DUP2 MSTORE PUSH1 0x20 ADD SWAP2 POP POP PUSH1 0x40 MLOAD DUP1 SWAP2 SUB SWAP1 RETURN JUMPDEST PUSH2 0xA6 PUSH1 0x4 DUP1 CALLDATASIZE SUB PUSH1 0x20 DUP2 LT ISZERO PUSH2 0x90 JUMPI PUSH1 0x0 DUP1 REVERT JUMPDEST DUP2 ADD SWAP1 DUP1 DUP1 CALLDATALOAD SWAP1 PUSH1 0x20 ADD SWAP1 SWAP3 SWAP2 SWAP1 POP POP POP PUSH2 0x16C JUMP JUMPDEST STOP JUMPDEST PUSH2 0xEA PUSH1 0x4 DUP1 CALLDATASIZE SUB PUSH1 0x20 DUP2 LT ISZERO PUSH2 0xBE JUMPI PUSH1 0x0 DUP1 REVERT JUMPDEST DUP2 ADD SWAP1 DUP1 DUP1 CALLDATALOAD PUSH20 0xFFFFFFFFFFFFFFFFFFFFFFFFFFFFFFFFFFFFFFFF AND SWAP1 PUSH1 0x20 ADD SWAP1 SWAP3 SWAP2 SWAP1 POP POP POP PUSH2 0x308 JUMP JUMPDEST PUSH1 0x40 MLOAD DUP1 DUP3 DUP2 MSTORE PUSH1 0x20 ADD SWAP2 POP POP PUSH1 0x40 MLOAD DUP1 SWAP2 SUB SWAP1 RETURN JUMPDEST PUSH2 0x12C PUSH1 0x4 DUP1 CALLDATASIZE SUB PUSH1 0x20 DUP2 LT ISZERO PUSH2 0x116 JUMPI PUSH1 0x0 DUP1 REVERT JUMPDEST DUP2 ADD SWAP1 DUP1 DUP1 CALLDATALOAD SWAP1 PUSH1 0x20 ADD SWAP1 SWAP3 SWAP2 SWAP1 POP POP POP PUSH2 0x351 JUMP JUMPDEST STOP JUMPDEST PUSH2 0x136 PUSH2 0x451 JUMP JUMPDEST PUSH1 0x40 MLOAD DUP1 DUP3 PUSH20 0xFFFFFFFFFFFFFFFFFFFFFFFFFFFFFFFFFFFFFFFF AND DUP2 MSTORE PUSH1 0x20 ADD SWAP2 POP POP PUSH1 0x40 MLOAD DUP1 SWAP2 SUB SWAP1 RETURN JUMPDEST PUSH1 0x0 PUSH1 0x1 SLOAD SWAP1 POP SWAP1 JUMP JUMPDEST PUSH1 0x0 PUSH1 0x2 PUSH1 0x0 CALLER PUSH20 0xFFFFFFFFFFFFFFFFFFFFFFFFFFFFFFFFFFFFFFFF AND PUSH20 0xFFFFFFFFFFFFFFFFFFFFFFFFFFFFFFFFFFFFFFFF AND DUP2 MSTORE PUSH1 0x20 ADD SWAP1 DUP2 MSTORE PUSH1 0x20 ADD PUSH1 0x0 KECCAK256 SLOAD SWAP1 POP DUP2 DUP2 LT ISZERO PUSH2 0x209 JUMPI PUSH1 0x40 MLOAD PUSH32 0x8C379A000000000000000000000000000000000000000000000000000000000 DUP2 MSTORE PUSH1 0x4 ADD DUP1 DUP1 PUSH1 0x20 ADD DUP3 DUP2 SUB DUP3 MSTORE PUSH1 0x2B DUP2 MSTORE PUSH1 0x20 ADD DUP1 PUSH2 0xAB5 PUSH1 0x2B SWAP2 CODECOPY PUSH1 0x40 ADD SWAP2 POP POP PUSH1 0x40 MLOAD DUP1 SWAP2 SUB SWAP1 REVERT JUMPDEST PUSH2 0x21E DUP3 PUSH1 0x1 SLOAD PUSH2 0x475 SWAP1 SWAP2 SWAP1 PUSH4 0xFFFFFFFF AND JUMP JUMPDEST PUSH1 0x1 DUP2 SWAP1 SSTORE POP PUSH2 0x276 DUP3 PUSH1 0x2 PUSH1 0x0 CALLER PUSH20 0xFFFFFFFFFFFFFFFFFFFFFFFFFFFFFFFFFFFFFFFF AND PUSH20 0xFFFFFFFFFFFFFFFFFFFFFFFFFFFFFFFFFFFFFFFF AND DUP2 MSTORE PUSH1 0x20 ADD SWAP1 DUP2 MSTORE PUSH1 0x20 ADD PUSH1 0x0 KECCAK256 SLOAD PUSH2 0x475 SWAP1 SWAP2 SWAP1 PUSH4 0xFFFFFFFF AND JUMP JUMPDEST PUSH1 0x2 PUSH1 0x0 CALLER PUSH20 0xFFFFFFFFFFFFFFFFFFFFFFFFFFFFFFFFFFFFFFFF AND PUSH20 0xFFFFFFFFFFFFFFFFFFFFFFFFFFFFFFFFFFFFFFFF AND DUP2 MSTORE PUSH1 0x20 ADD SWAP1 DUP2 MSTORE PUSH1 0x20 ADD PUSH1 0x0 KECCAK256 DUP2 SWAP1 SSTORE POP PUSH2 0x304 CALLER DUP4 PUSH1 0x0 DUP1 SLOAD SWAP1 PUSH2 0x100 EXP SWAP1 DIV PUSH20 0xFFFFFFFFFFFFFFFFFFFFFFFFFFFFFFFFFFFFFFFF AND PUSH20 0xFFFFFFFFFFFFFFFFFFFFFFFFFFFFFFFFFFFFFFFF AND PUSH2 0x4BF SWAP1 SWAP3 SWAP2 SWAP1 PUSH4 0xFFFFFFFF AND JUMP JUMPDEST POP POP JUMP JUMPDEST PUSH1 0x0 PUSH1 0x2 PUSH1 0x0 DUP4 PUSH20 0xFFFFFFFFFFFFFFFFFFFFFFFFFFFFFFFFFFFFFFFF AND PUSH20 0xFFFFFFFFFFFFFFFFFFFFFFFFFFFFFFFFFFFFFFFF AND DUP2 MSTORE PUSH1 0x20 ADD SWAP1 DUP2 MSTORE PUSH1 0x20 ADD PUSH1 0x0 KECCAK256 SLOAD SWAP1 POP SWAP2 SWAP1 POP JUMP JUMPDEST PUSH2 0x366 DUP2 PUSH1 0x1 SLOAD PUSH2 0x561 SWAP1 SWAP2 SWAP1 PUSH4 0xFFFFFFFF AND JUMP JUMPDEST PUSH1 0x1 DUP2 SWAP1 SSTORE POP PUSH2 0x3BE DUP2 PUSH1 0x2 PUSH1 0x0 CALLER PUSH20 0xFFFFFFFFFFFFFFFFFFFFFFFFFFFFFFFFFFFFFFFF AND PUSH20 0xFFFFFFFFFFFFFFFFFFFFFFFFFFFFFFFFFFFFFFFF AND DUP2 MSTORE PUSH1 0x20 ADD SWAP1 DUP2 MSTORE PUSH1 0x20 ADD PUSH1 0x0 KECCAK256 SLOAD PUSH2 0x561 SWAP1 SWAP2 SWAP1 PUSH4 0xFFFFFFFF AND JUMP JUMPDEST PUSH1 0x2 PUSH1 0x0 CALLER PUSH20 0xFFFFFFFFFFFFFFFFFFFFFFFFFFFFFFFFFFFFFFFF AND PUSH20 0xFFFFFFFFFFFFFFFFFFFFFFFFFFFFFFFFFFFFFFFF AND DUP2 MSTORE PUSH1 0x20 ADD SWAP1 DUP2 MSTORE PUSH1 0x20 ADD PUSH1 0x0 KECCAK256 DUP2 SWAP1 SSTORE POP PUSH2 0x44E CALLER ADDRESS DUP4 PUSH1 0x0 DUP1 SLOAD SWAP1 PUSH2 0x100 EXP SWAP1 DIV PUSH20 0xFFFFFFFFFFFFFFFFFFFFFFFFFFFFFFFFFFFFFFFF AND PUSH20 0xFFFFFFFFFFFFFFFFFFFFFFFFFFFFFFFFFFFFFFFF AND PUSH2 0x5E9 SWAP1 SWAP4 SWAP3 SWAP2 SWAP1 PUSH4 0xFFFFFFFF AND JUMP JUMPDEST POP JUMP JUMPDEST PUSH1 0x0 DUP1 SLOAD SWAP1 PUSH2 0x100 EXP SWAP1 DIV PUSH20 0xFFFFFFFFFFFFFFFFFFFFFFFFFFFFFFFFFFFFFFFF AND DUP2 JUMP JUMPDEST PUSH1 0x0 PUSH2 0x4B7 DUP4 DUP4 PUSH1 0x40 MLOAD DUP1 PUSH1 0x40 ADD PUSH1 0x40 MSTORE DUP1 PUSH1 0x1E DUP2 MSTORE PUSH1 0x20 ADD PUSH32 0x536166654D6174683A207375627472616374696F6E206F766572666C6F770000 DUP2 MSTORE POP PUSH2 0x6AA JUMP JUMPDEST SWAP1 POP SWAP3 SWAP2 POP POP JUMP JUMPDEST PUSH2 0x55C DUP4 PUSH4 0xA9059CBB PUSH1 0xE0 SHL DUP5 DUP5 PUSH1 0x40 MLOAD PUSH1 0x24 ADD DUP1 DUP4 PUSH20 0xFFFFFFFFFFFFFFFFFFFFFFFFFFFFFFFFFFFFFFFF AND DUP2 MSTORE PUSH1 0x20 ADD DUP3 DUP2 MSTORE PUSH1 0x20 ADD SWAP3 POP POP POP PUSH1 0x40 MLOAD PUSH1 0x20 DUP2 DUP4 SUB SUB DUP2 MSTORE SWAP1 PUSH1 0x40 MSTORE SWAP1 PUSH28 0xFFFFFFFFFFFFFFFFFFFFFFFFFFFFFFFFFFFFFFFFFFFFFFFFFFFFFFFF NOT AND PUSH1 0x20 DUP3 ADD DUP1 MLOAD PUSH28 0xFFFFFFFFFFFFFFFFFFFFFFFFFFFFFFFFFFFFFFFFFFFFFFFFFFFFFFFF DUP4 DUP2 DUP4 AND OR DUP4 MSTORE POP POP POP POP PUSH2 0x76A JUMP JUMPDEST POP POP POP JUMP JUMPDEST PUSH1 0x0 DUP1 DUP3 DUP5 ADD SWAP1 POP DUP4 DUP2 LT ISZERO PUSH2 0x5DF JUMPI PUSH1 0x40 MLOAD PUSH32 0x8C379A000000000000000000000000000000000000000000000000000000000 DUP2 MSTORE PUSH1 0x4 ADD DUP1 DUP1 PUSH1 0x20 ADD DUP3 DUP2 SUB DUP3 MSTORE PUSH1 0x1B DUP2 MSTORE PUSH1 0x20 ADD DUP1 PUSH32 0x536166654D6174683A206164646974696F6E206F766572666C6F770000000000 DUP2 MSTORE POP PUSH1 0x20 ADD SWAP2 POP POP PUSH1 0x40 MLOAD DUP1 SWAP2 SUB SWAP1 REVERT JUMPDEST DUP1 SWAP2 POP POP SWAP3 SWAP2 POP POP JUMP JUMPDEST PUSH2 0x6A4 DUP5 PUSH4 0x23B872DD PUSH1 0xE0 SHL DUP6 DUP6 DUP6 PUSH1 0x40 MLOAD PUSH1 0x24 ADD DUP1 DUP5 PUSH20 0xFFFFFFFFFFFFFFFFFFFFFFFFFFFFFFFFFFFFFFFF AND DUP2 MSTORE PUSH1 0x20 ADD DUP4 PUSH20 0xFFFFFFFFFFFFFFFFFFFFFFFFFFFFFFFFFFFFFFFF AND DUP2 MSTORE PUSH1 0x20 ADD DUP3 DUP2 MSTORE PUSH1 0x20 ADD SWAP4 POP POP POP POP PUSH1 0x40 MLOAD PUSH1 0x20 DUP2 DUP4 SUB SUB DUP2 MSTORE SWAP1 PUSH1 0x40 MSTORE SWAP1 PUSH28 0xFFFFFFFFFFFFFFFFFFFFFFFFFFFFFFFFFFFFFFFFFFFFFFFFFFFFFFFF NOT AND PUSH1 0x20 DUP3 ADD DUP1 MLOAD PUSH28 0xFFFFFFFFFFFFFFFFFFFFFFFFFFFFFFFFFFFFFFFFFFFFFFFFFFFFFFFF DUP4 DUP2 DUP4 AND OR DUP4 MSTORE POP POP POP POP PUSH2 0x76A JUMP JUMPDEST POP POP POP POP JUMP JUMPDEST PUSH1 0x0 DUP4 DUP4 GT ISZERO DUP3 SWAP1 PUSH2 0x757 JUMPI PUSH1 0x40 MLOAD PUSH32 0x8C379A000000000000000000000000000000000000000000000000000000000 DUP2 MSTORE PUSH1 0x4 ADD DUP1 DUP1 PUSH1 0x20 ADD DUP3 DUP2 SUB DUP3 MSTORE DUP4 DUP2 DUP2 MLOAD DUP2 MSTORE PUSH1 0x20 ADD SWAP2 POP DUP1 MLOAD SWAP1 PUSH1 0x20 ADD SWAP1 DUP1 DUP4 DUP4 PUSH1 0x0 JUMPDEST DUP4 DUP2 LT ISZERO PUSH2 0x71C JUMPI DUP1 DUP3 ADD MLOAD DUP2 DUP5 ADD MSTORE PUSH1 0x20 DUP2 ADD SWAP1 POP PUSH2 0x701 JUMP JUMPDEST POP POP POP POP SWAP1 POP SWAP1 DUP2 ADD SWAP1 PUSH1 0x1F AND DUP1 ISZERO PUSH2 0x749 JUMPI DUP1 DUP3 SUB DUP1 MLOAD PUSH1 0x1 DUP4 PUSH1 0x20 SUB PUSH2 0x100 EXP SUB NOT AND DUP2 MSTORE PUSH1 0x20 ADD SWAP2 POP JUMPDEST POP SWAP3 POP POP POP PUSH1 0x40 MLOAD DUP1 SWAP2 SUB SWAP1 REVERT JUMPDEST POP PUSH1 0x0 DUP4 DUP6 SUB SWAP1 POP DUP1 SWAP2 POP POP SWAP4 SWAP3 POP POP POP JUMP JUMPDEST PUSH1 0x60 PUSH2 0x7CC DUP3 PUSH1 0x40 MLOAD DUP1 PUSH1 0x40 ADD PUSH1 0x40 MSTORE DUP1 PUSH1 0x20 DUP2 MSTORE PUSH1 0x20 ADD PUSH32 0x5361666545524332303A206C6F772D6C6576656C2063616C6C206661696C6564 DUP2 MSTORE POP DUP6 PUSH20 0xFFFFFFFFFFFFFFFFFFFFFFFFFFFFFFFFFFFFFFFF AND PUSH2 0x859 SWAP1 SWAP3 SWAP2 SWAP1 PUSH4 0xFFFFFFFF AND JUMP JUMPDEST SWAP1 POP PUSH1 0x0 DUP2 MLOAD GT ISZERO PUSH2 0x854 JUMPI DUP1 DUP1 PUSH1 0x20 ADD SWAP1 MLOAD PUSH1 0x20 DUP2 LT ISZERO PUSH2 0x7ED JUMPI PUSH1 0x0 DUP1 REVERT JUMPDEST DUP2 ADD SWAP1 DUP1 DUP1 MLOAD SWAP1 PUSH1 0x20 ADD SWAP1 SWAP3 SWAP2 SWAP1 POP POP POP PUSH2 0x853 JUMPI PUSH1 0x40 MLOAD PUSH32 0x8C379A000000000000000000000000000000000000000000000000000000000 DUP2 MSTORE PUSH1 0x4 ADD DUP1 DUP1 PUSH1 0x20 ADD DUP3 DUP2 SUB DUP3 MSTORE PUSH1 0x2A DUP2 MSTORE PUSH1 0x20 ADD DUP1 PUSH2 0xA8B PUSH1 0x2A SWAP2 CODECOPY PUSH1 0x40 ADD SWAP2 POP POP PUSH1 0x40 MLOAD DUP1 SWAP2 SUB SWAP1 REVERT JUMPDEST JUMPDEST POP POP POP JUMP JUMPDEST PUSH1 0x60 PUSH2 0x868 DUP5 DUP5 PUSH1 0x0 DUP6 PUSH2 0x871 JUMP JUMPDEST SWAP1 POP SWAP4 SWAP3 POP POP POP JUMP JUMPDEST PUSH1 0x60 PUSH2 0x87C DUP6 PUSH2 0xA77 JUMP JUMPDEST PUSH2 0x8EE JUMPI PUSH1 0x40 MLOAD PUSH32 0x8C379A000000000000000000000000000000000000000000000000000000000 DUP2 MSTORE PUSH1 0x4 ADD DUP1 DUP1 PUSH1 0x20 ADD DUP3 DUP2 SUB DUP3 MSTORE PUSH1 0x1D DUP2 MSTORE PUSH1 0x20 ADD DUP1 PUSH32 0x416464726573733A2063616C6C20746F206E6F6E2D636F6E7472616374000000 DUP2 MSTORE POP PUSH1 0x20 ADD SWAP2 POP POP PUSH1 0x40 MLOAD DUP1 SWAP2 SUB SWAP1 REVERT JUMPDEST PUSH1 0x0 PUSH1 0x60 DUP7 PUSH20 0xFFFFFFFFFFFFFFFFFFFFFFFFFFFFFFFFFFFFFFFF AND DUP6 DUP8 PUSH1 0x40 MLOAD DUP1 DUP3 DUP1 MLOAD SWAP1 PUSH1 0x20 ADD SWAP1 DUP1 DUP4 DUP4 JUMPDEST PUSH1 0x20 DUP4 LT PUSH2 0x93E JUMPI DUP1 MLOAD DUP3 MSTORE PUSH1 0x20 DUP3 ADD SWAP2 POP PUSH1 0x20 DUP2 ADD SWAP1 POP PUSH1 0x20 DUP4 SUB SWAP3 POP PUSH2 0x91B JUMP JUMPDEST PUSH1 0x1 DUP4 PUSH1 0x20 SUB PUSH2 0x100 EXP SUB DUP1 NOT DUP3 MLOAD AND DUP2 DUP5 MLOAD AND DUP1 DUP3 OR DUP6 MSTORE POP POP POP POP POP POP SWAP1 POP ADD SWAP2 POP POP PUSH1 0x0 PUSH1 0x40 MLOAD DUP1 DUP4 SUB DUP2 DUP6 DUP8 GAS CALL SWAP3 POP POP POP RETURNDATASIZE DUP1 PUSH1 0x0 DUP2 EQ PUSH2 0x9A0 JUMPI PUSH1 0x40 MLOAD SWAP2 POP PUSH1 0x1F NOT PUSH1 0x3F RETURNDATASIZE ADD AND DUP3 ADD PUSH1 0x40 MSTORE RETURNDATASIZE DUP3 MSTORE RETURNDATASIZE PUSH1 0x0 PUSH1 0x20 DUP5 ADD RETURNDATACOPY PUSH2 0x9A5 JUMP JUMPDEST PUSH1 0x60 SWAP2 POP JUMPDEST POP SWAP2 POP SWAP2 POP DUP2 ISZERO PUSH2 0x9BA JUMPI DUP1 SWAP3 POP POP POP PUSH2 0xA6F JUMP JUMPDEST PUSH1 0x0 DUP2 MLOAD GT ISZERO PUSH2 0x9CD JUMPI DUP1 MLOAD DUP1 DUP3 PUSH1 0x20 ADD REVERT JUMPDEST DUP4 PUSH1 0x40 MLOAD PUSH32 0x8C379A000000000000000000000000000000000000000000000000000000000 DUP2 MSTORE PUSH1 0x4 ADD DUP1 DUP1 PUSH1 0x20 ADD DUP3 DUP2 SUB DUP3 MSTORE DUP4 DUP2 DUP2 MLOAD DUP2 MSTORE PUSH1 0x20 ADD SWAP2 POP DUP1 MLOAD SWAP1 PUSH1 0x20 ADD SWAP1 DUP1 DUP4 DUP4 PUSH1 0x0 JUMPDEST DUP4 DUP2 LT ISZERO PUSH2 0xA34 JUMPI DUP1 DUP3 ADD MLOAD DUP2 DUP5 ADD MSTORE PUSH1 0x20 DUP2 ADD SWAP1 POP PUSH2 0xA19 JUMP JUMPDEST POP POP POP POP SWAP1 POP SWAP1 DUP2 ADD SWAP1 PUSH1 0x1F AND DUP1 ISZERO PUSH2 0xA61 JUMPI DUP1 DUP3 SUB DUP1 MLOAD PUSH1 0x1 DUP4 PUSH1 0x20 SUB PUSH2 0x100 EXP SUB NOT AND DUP2 MSTORE PUSH1 0x20 ADD SWAP2 POP JUMPDEST POP SWAP3 POP POP POP PUSH1 0x40 MLOAD DUP1 SWAP2 SUB SWAP1 REVERT JUMPDEST SWAP5 SWAP4 POP POP POP POP JUMP JUMPDEST PUSH1 0x0 DUP1 DUP3 EXTCODESIZE SWAP1 POP PUSH1 0x0 DUP2 GT SWAP2 POP POP SWAP2 SWAP1 POP JUMP INVALID MSTORE8 PUSH2 0x6665 GASLIMIT MSTORE NUMBER ORIGIN ADDRESS GASPRICE KECCAK256 GASLIMIT MSTORE NUMBER ORIGIN ADDRESS KECCAK256 PUSH16 0x7065726174696F6E20646964206E6F74 KECCAK256 PUSH20 0x7563636565647769746864726177207265717565 PUSH20 0x742067726561746572207468616E207374616B65 PUSH5 0x20616D6F75 PUSH15 0x74A2646970667358221220227E58AF MOD PC SELFDESTRUCT 0xAF PUSH30 0xEE602E33406587BA3DB2CBCDCFFD2F2E3FD77C3ECA8F6464736F6C634300 MOD 0xC STOP CALLER "
				},
				"gasEstimates": {
					"creation": {
						"codeDepositCost": "567400",
						"executionCost": "600",
						"totalCost": "568000"
					},
					"external": {
						"balanceOf(address)": "1218",
						"lpt()": "1110",
						"stake(uint256)": "infinite",
						"totalSupply()": "991",
						"withdraw(uint256)": "infinite"
					}
				},
				"methodIdentifiers": {
					"balanceOf(address)": "70a08231",
					"lpt()": "ce5fc8d0",
					"stake(uint256)": "a694fc3a",
					"totalSupply()": "18160ddd",
					"withdraw(uint256)": "2e1a7d4d"
				}
			},
			"storageLayout": {
				"storage": [
					{
						"astId": 874,
						"contract": "contracts/ERC20StakingPool.sol:LPTokenWrapper",
						"label": "lpt",
						"offset": 0,
						"slot": "0",
						"type": "t_contract(IERC20)76"
					},
					{
						"astId": 877,
						"contract": "contracts/ERC20StakingPool.sol:LPTokenWrapper",
						"label": "_totalSupply",
						"offset": 0,
						"slot": "1",
						"type": "t_uint256"
					},
					{
						"astId": 882,
						"contract": "contracts/ERC20StakingPool.sol:LPTokenWrapper",
						"label": "_balances",
						"offset": 0,
						"slot": "2",
						"type": "t_mapping(t_address,t_uint256)"
					}
				],
				"types": {
					"t_address": {
						"encoding": "inplace",
						"label": "address",
						"numberOfBytes": "20"
					},
					"t_contract(IERC20)76": {
						"encoding": "inplace",
						"label": "contract IERC20",
						"numberOfBytes": "20"
					},
					"t_mapping(t_address,t_uint256)": {
						"encoding": "mapping",
						"key": "t_address",
						"label": "mapping(address => uint256)",
						"numberOfBytes": "32",
						"value": "t_uint256"
					},
					"t_uint256": {
						"encoding": "inplace",
						"label": "uint256",
						"numberOfBytes": "32"
					}
				}
			},
			"userdoc": {
				"kind": "user",
				"methods": {
					"lpt()": {
						"notice": "GoCash LP Token合约地址"
					}
				},
				"version": 1
			}
		}
	}
}